:100000000C9434000C9451000C9451000C94510049
:100010000C9451000C9451000C9451000C9451001C
:100020000C9451000C9451000C9451000C9451000C
:100030000C9451000C9451000C9451000C945100FC
:100040000C9451000C9451000C9451000C945100EC
:100050000C9451000C9451000C9451000C945100DC
:100060000C9451000C94510011241FBECFEFD8E026
:10007000DEBFCDBF11E0A0E0B1E0E4E4FFE002C0EC
:1000800005900D92A23BB107D9F722E0A2EBB1E0B7
:1000900001C01D92A637B207E1F70E9470040C94CC
:1000A000A0070C9400008AB180688AB98AB1877F62
:1000B0008AB98BB188608BB98AB18F7B8AB98BB1D1
:1000C00080648BB98AB18F7D8AB98BB180628BB91C
:1000D0008AB18F7E8AB98BB180618BB98AB18B7FEF
:1000E0008AB98BB184608BB90895082E000C990BE6
:1000F00029B130E028233923232B61F4E0E4FCE923
:100100003197F1F729B130E082239323892B21F431
:1001100080E0089581E0089581E00895FF920F93B3
:100120001F93CF93DF93D82F84E00E947500C82FD0
:1001300088E00E947500182F80E40E947500082F47
:1001400080E20E947500F82E80E10E947500C111C6
:1001500002C0112381F0C11102C0002371F0CC2331
:1001600071F0882371F0FF2071F0002371F01111FC
:100170000EC081E00DC087E00BC088E009C085E0BB
:1001800007C084E005C083E003C082E001C08D2F7A
:10019000DF91CF911F910F91FF900895882381F0F7
:1001A0008BB180688BB984EF91E005C0E8ECF0E09A
:1001B0003197F1F701970097C9F78BB18F778BB91A
:1001C000662381F08BB180688BB988E893E105C024
:1001D000E8ECF0E03197F1F701970097C9F78BB1A0
:1001E0008F778BB908950F931F93CF93DF93CDB77C
:1001F000DEB7C054D1090FB6F894DEBF0FBECDBF35
:10020000DC019E012F5F3F4F80E4F90111928A9536
:10021000E9F7CD0115C0FC0130812181E1E0F0E07A
:10022000EC0FFD1F08E03002E00DF11D1124E20F7C
:10023000F11D27FDFA9521E02083FC018481958141
:10024000009749F7862F972FE1E0F0E0EC0FFD1FB4
:1002500008E06002E00DF11D1124E70FF11D77FDAC
:10026000FA9521E0208360E070E076C027E0E22F7D
:10027000E41B261B022E000C330B18E0E102200DBC
:10028000311D1124F901EE0FFF1FE20FF31FEE5491
:10029000FE4F128210821182FB01EE0FFF1FEE0F44
:1002A000FF1FEE0FFF1F01E010E00C0F1D1FE00FFE
:1002B000F11FE40FF51FE081EE2309F442C0E82F9F
:1002C000082E000CFF0B6E177F0791F4E92F092E03
:1002D000000CFF0B4E175F0759F4F901EE0FFF1FDB
:1002E0002E0F3F1FF901EE54FE4F21E0218329C05C
:1002F000EC910E2E000CFF0B6E177F07B1F41196D8
:10030000EC9111970E2E000CFF0B4E175F0769F44E
:10031000F901EE0FFF1F2E0F3F1FF901EE54FE4FA4
:1003200023E02083128211820CC0F901EE0FFF1F1F
:100330002E0F3F1FF901EE54FE4F21E02083128261
:1003400011824F5F5F4F02C040E050E048305105DE
:1003500008F48CCF6F5F7F4F68307105A8F360ECB5
:1003600070E082EB91E00E9423048EEE92E005C0E3
:10037000E8ECF0E03197F1F701970097C9F7C05C1E
:10038000DF4F0FB6F894DEBF0FBECDBFDF91CF9128
:100390001F910F9108950F931F93CF93DF93CDB7C4
:1003A000DEB728970FB6F894DEBF0FBECDBF182F6B
:1003B0008A30ECF027E68202212D1124259525951F
:1003C00087FD2395220F822F880F880F280F312F4A
:1003D000321B812F110F990B831B910937FD9395C8
:1003E0006AE070E00E942F05062F132F01C000E085
:1003F00080E00FC0E82F082E000CFF0B9F01220F9A
:10040000331FE20FF31FEE54FE4F1282108211824F
:100410008F5F80347CF380E29EE40197F1F760EC1B
:1004200070E082EB91E00E944F04FE01319688E07B
:10043000DF011D928A95E9F780E090E01BC0B8E0EB
:100440000B02F0011124EE59FE4FE80FF91F308125
:1004500028E01202F0011124EE5EFE4FE80FF91FB2
:100460002081E1E0F0E0EC0FFD1FE80FF91F232BE6
:10047000208301968830910510F340E050E02DC0B4
:10048000E1E0F0E0EC0FFD1FE40FF51F3081FC010F
:10049000E65FFE4F20812323B9F0E7E02E2F241BD7
:1004A000E81B0E2E000CFF0B38E02302E00DF11DBF
:1004B00011249F01220F331FE20FF31FEE54FE4F52
:1004C0001082118221E02283019602C080E090E038
:1004D00088309105A8F24F5F5F4F48305105B0F367
:1004E00080E29EE40197F1F760EC70E082EB91E02E
:1004F0000E944F0480E395E705C0E8ECF0E03197F7
:10050000F1F701970097C9F728960FB6F894DEBF68
:100510000FBECDBFDF91CF911F910F910895FC01C8
:100520002081FB012083FC018181FA0180830895F1
:10053000EF92FF920F931F93CF93DF93EC017B0118
:10054000042F122F88819981892BC1F466E070E015
:1005500081E090E00E94980599838883D7018D936C
:100560009C93E881F9810083E881F9811183E88116
:10057000F981138212821582148214C066E070E041
:1005800081E090E00E949805FC0113821282E881CC
:10059000F981DC011596FC93EE9314979383828383
:1005A00099838883DF91CF911F910F91FF90EF90F6
:1005B00008950F931F93CF93DF93EC0107C0FC01C5
:1005C000048115810E944C061983088388819981D2
:1005D0000097A9F7DF91CF911F910F9108950F9385
:1005E0001F93CF93DF93EC01062F142F66E070E08A
:1005F00081E090E00E949805FC0115821482A88198
:10060000B981B383A2830083118315969C938E9343
:10061000149799838883DF91CF911F910F9108954B
:10062000FC01A081B1811296ED91FC9113970DC050
:1006300080818C93818111968C93119712960D90E5
:10064000BC91A02D0280F381E02D309789F70895A9
:100650000F931F93CF93DF93D82FC62F8A010E9449
:1006600020072D2FDD0F330B440B550B0E94430544
:10067000F80160830E9420072C2FCC0F330B440B12
:10068000550B0E944305F8016183DF91CF911F91C3
:100690000F910895DC012C91261305C011968C91C1
:1006A00011978717A9F01496ED91FC9115970CC03E
:1006B0009081291306C011963C91119791813917A9
:1006C00049F00480F581E02D309791F780E008959E
:1006D00082E0089583E00895FC0190819F5F9083FC
:1006E00008959C01245631092732324030F46623A4
:1006F00011F049970895499608958BE490E0089584
:100700008F929F92AF92BF92EF92FF920F931F939F
:10071000CF93DF93CDB7DEB7FC019081DB018C91E5
:10072000981305C0408381E0F501808377C0913044
:1007300099F4D901ED91FC911197818181508183C8
:1007400082E0FB018083ED91FC9181818F3F09F074
:1007500065C087E0818362C0923091F4D901ED9148
:10076000FC91119781818F5F818381E0FB01808300
:10077000ED91FC918181883009F050C011824EC00A
:10078000933091F4D901ED91FC91119780818150C2
:10079000808384E0FB018083ED91FC9180818F3F19
:1007A000E9F587E080833AC0943089F4D901ED916E
:1007B000FC91119780818F5F808383E0FB018083B0
:1007C000ED91FC918081883049F5108227C09530E9
:1007D00029F4D8011C92F701108220C0D50197306E
:1007E00071F4408381E08C93D4018C9161E0082EF8
:1007F000000C990B0E947103F40180830FC09830A4
:1008000069F4408381E08C93D4018C9160E0082EE0
:10081000000C990B0E947103F4018083DF91CF914A
:100820001F910F91FF90EF90BF90AF909F908F908E
:10083000089505C04997E0E5F3EC3197F1F71816F4
:100840001906C4F30895FC019B01220F331F620FA8
:10085000731F84B1816084B9A5B1AE7F55B1516079
:10086000BFB7F89410C09F012F5F3F4F408168E0F1
:1008700055B947FFA5B9440F000007F4A5B96A951B
:10088000B9F7BC01F901CB010197672B61F7BFBF35
:1008900087E592E00197F1F700C000000895FC01A0
:1008A00084B1816084B9A5B1AE7F55B15160BFB745
:1008B000F89410C09F012F5F3F4F408168E055B909
:1008C00047FFA5B9440F000007F4A5B96A95B9F729
:1008D000BC01F901CB010197672B61F7BFBF0895F8
:1008E000CF93DF93CDB7DEB761970FB6F894DEBF35
:1008F0000FBECDBF0E94530081E0898B1E861E82F1
:100900001D821C821B82A7C081E08B872BE430E014
:1009100038872F83888B1F868A8782E0898724E027
:1009200044E0BE016D5F7F4FCE0105960E949802A4
:10093000AE014F5F5F4F68E088E00E942803698145
:100940007A8128E048E08D819E810E94F3006CC08E
:100950007A84872D0E948E008A87AE01445F5F4FA4
:10096000BE01635F7F4F8B819C810E948F02CE010D
:1009700003960E941003CE0107964C0107965C0176
:1009800001966C0102967C018E01005F1F4F9E0153
:100990002B5F3F4F472DBE01675F7F4F07970E9438
:1009A00080038E85882361F01E86C7019E012B5F20
:1009B0003F4F472DBE01675F7F4F07970E9480031F
:1009C00069817A8128E048E08D819E810E944A03F6
:1009D000182F69817A8128E048E08D819E810E94EC
:1009E000F3001230B1F4AE014F5F5F4F68E088E072
:1009F0000E9428034C856D85CE0103960E94EF026C
:100A0000CE010B960E946C0360E081E00E94CE0054
:100A100007C0133029F4188ACE0105960E94D90226
:100A20008F8198850E9419048889811191CF811145
:100A300003C08989882339F061E080E00E94CE00FC
:100A40008B850E94CB018D819E81892B21F0CE0167
:100A500005960E94D9028989811156CF4DCF97FB07
:100A6000072E16F4009407D077FD09D00E94620586
:100A700007FC05D03EF4909581959F4F08957095A1
:100A800061957F4F0895052E97FB1EF400940E94F8
:100A90005A0557FD07D00E94760507FC03D04EF497
:100AA0000C945A0550954095309521953F4F4F4FE6
:100AB0005F4F089590958095709561957F4F8F4F0A
:100AC0009F4F0895AA1BBB1B51E107C0AA1FBB1F64
:100AD000A617B70710F0A61BB70B881F991F5A95CA
:100AE000A9F780959095BC01CD010895A1E21A2E39
:100AF000AA1BBB1BFD010DC0AA1FBB1FEE1FFF1FC2
:100B0000A217B307E407F50720F0A21BB30BE40B11
:100B1000F50B661F771F881F991F1A9469F7609558
:100B20007095809590959B01AC01BD01CF01089512
:100B30000F931F93CF93DF93869F8001879F100DA4
:100B4000969F100D1124C8010E94B405EC01009776
:100B500029F0A80160E070E00E947707CE01DF91E4
:100B6000CF911F910F9108950F931F93CF93DF9310
:100B70008230910510F482E090E0E0917402F091EF
:100B8000750220E030E0A0E0B0E0309719F140813C
:100B900051810281138148175907C8F084179507BE
:100BA00069F4109731F012960C93129713961C93D8
:100BB00027C0009374021093750222C021153105DD
:100BC00019F04217530718F49A01BD01EF01DF0134
:100BD000F801DBCF21153105F9F0281B390B243042
:100BE000310580F48A819B816115710521F0FB013B
:100BF0009383828304C09093750280937402FE01F4
:100C0000329644C0FE01E20FF31F8193919322506C
:100C10003109398328833AC02091720230917302DE
:100C2000232B41F420910201309103013093730290
:100C300020937202209100013091010121153105AC
:100C400041F42DB73EB74091040150910501241B9A
:100C5000350BE0917202F0917302E217F307A0F4F2
:100C60002E1B3F0B2817390778F0AC014E5F5F4F02
:100C70002417350748F04E0F5F1F509373024093BF
:100C800072028193919302C0E0E0F0E0CF01DF9126
:100C9000CF911F910F910895CF93DF93009709F49F
:100CA00081C0FC01329713821282A0917402B0912C
:100CB0007502109781F420813181820F931F20915A
:100CC0007202309173022817390751F5F0937302BD
:100CD000E093720267C0ED0120E030E0CE17DF073D
:100CE00040F44A815B819E0141155105F1F0EA0112
:100CF000F5CFD383C28340815181840F951FC817DC
:100D0000D90759F488819981840F951F02969183A0
:100D100080838A819B81938382832115310529F405
:100D2000F0937502E09374023DC0E901FB83EA830E
:100D300049915991C40FD51FEC17FD0761F48081CB
:100D40009181840F951F0296E9019983888382819E
:100D500093819B838A83E0E0F0E012968D919C91D1
:100D60001397009719F0FD01DC01F7CF8D919C914D
:100D700011979D012E5F3F4F820F931F20917202AA
:100D8000309173022817390769F4309729F41092CB
:100D900075021092740202C013821282B093730221
:100DA000A0937202DF91CF9108958F929F92AF929C
:100DB000BF92CF92DF92EF92FF92CF93DF93EC013D
:100DC000688179818A819B81611571058105910511
:100DD00021F464E279ED8BE597E02DE133EF41E01A
:100DE00050E00E94430549015A019B01AC01A7EA6A
:100DF000B1E40E947E076B017C01ACEEB4EFA5016B
:100E000094010E948C07DC01CB018C0D9D1DAE1D51
:100E1000BF1DB7FF03C00197A109B048888399831C
:100E2000AA83BB83BC01CD019F77DF91CF91FF9057
:100E3000EF90DF90CF90BF90AF909F908F900895EC
:100E40008F929F92AF92BF92CF92DF92EF92FF92DA
:100E5000609106017091070180910801909109014C
:100E6000611571058105910521F464E279ED8BE549
:100E700097E02DE133EF41E050E00E944305490146
:100E80005A019B01AC01A7EAB1E40E947E076B0105
:100E90007C01ACEEB4EFA50194010E948C07DC014B
:100EA000CB018C0D9D1DAE1DBF1DB7FF03C001976B
:100EB000A109B0488093060190930701A09308010F
:100EC000B0930901BC01CD019F77FF90EF90DF90B7
:100ED000CF90BF90AF909F908F9008956093060140
:100EE0007093070180930801909309010895DC0134
:100EF00001C06D9341505040E0F708950E94910762
:100F0000A59F900DB49F900DA49F800D911D11245D
:100F10000895B7FF0C947E070E947E07821B930BF7
:100F20000895A29FB001B39FC001A39F700D811DC2
:100F30001124911DB29F700D811D1124911D0895E2
:040F4000F894FFCF53
:100F44000000760220000100000080402010080408
:100F54000201070505050505050701010101010158
:100F64000101070101030604040707010107070142
:100F74000107050505070101010107040406030132
:100F8400010707040406050505070701010101011E
:100F940001010705050507050507070505050701FF
:100FA4000101E0A0A0A0A0A0A0E0202020202020FB
:100FB4002020E0202060C08080E0E02020E0E020CD
:100FC40020E0A0A0A0E020202020E08080C06020BD
:100FD40020E0E08080C0A0A0A0E0E020202020202D
:100FE4002020E0A0A0A0E0A0A0E0E0A0A0A0E0203D
:020FF4002020BB
:00000001FF
