:100000000C9462000C948A000C948A000C948A0070
:100010000C948A000C948A000C948A000C948A0038
:100020000C948A000C948A000C948A000C948A0028
:100030000C948A000C948A000C948A000C948A0018
:100040000C94C3080C948A000C948A000C948A00C7
:100050000C948A000C948A000C948A000C948A00F8
:100060000C948A000C948A000000000024002700F1
:100070002A000000000023002600290000000000E4
:10008000250028002B0004040404040404040202D4
:100090000202020203030303030301020408102007
:1000A0004080010204081020010204081020000012
:1000B0000008000201000003040700000000000027
:1000C0000000D80B11241FBECFEFD8E0DEBFCDBF9C
:1000D00011E0A0E0B1E0E0ECFCE102C005900D927F
:1000E000A43DB107D9F722E0A4EDB1E001C01D9213
:1000F000A73DB207E1F710E0C2E6D0E004C02197C7
:10010000FE010E942E0DC136D107C9F70E940D09CC
:100110000C945E0E0C94000020E0DC0160FF03C034
:1001200001C02D932D936250E0F77040D0F70895F1
:10013000CF93DF93C091CD02D091CE02209789F06A
:100140008A819B81009749F02D853E85B901660F14
:10015000771F620F731F0E948C000C80DD81C02D01
:10016000EDCFDF91CF910895AF92BF92CF92DF9202
:10017000EF92FF920F931F93CF93DF93DB01EC017C
:10018000E881F9816D917C911197E617F70781F469
:100190005983488381E0F6018083DF91CF911F91DD
:1001A0000F91FF90EF90DF90CF90BF90AF900895A8
:1001B000E130F10599F4E901E881F98182819381C7
:1001C00001979383828322E030E02D933C93019644
:1001D00021F787E090E093838283DFCFE230F1055F
:1001E00089F4E901E881F981828193810196938301
:1001F000828321E030E02D933C93089771F61382BF
:100200001282CBCFE330F105A1F4E901E881F98155
:100210008081918101979183808324E030E02D9348
:100220003C93019609F0B9CF87E090E091838083F9
:10023000B4CFE430F10591F4E901E881F9818081DE
:10024000918101969183808323E030E02D933C934C
:10025000089709F0A2CF118210829FCFE530F105F7
:1002600029F4F8011082E701188297CFE730F105F1
:1002700091F45983488381E0E6018883F501808108
:1002800091819C01245631094997293C3105A8F0F8
:100290008FEA90E012C0389709F07FCF59834883E6
:1002A00081E0E6018883F501808191819C012456DB
:1002B00031094996293C310558F7E501998388832E
:1002C0006CCFDC0117962C91179730E0F901E656B8
:1002D000FF4FE4911696EC9316972A573F4FF9017A
:1002E0008491E82FF0E0EE0FFF1FE458FF4F859157
:1002F000949113969C938E931297F9012491E22F77
:10030000F0E0EE0FFF1FEE58FF4F85919491159688
:100310009C938E931497089580E991E0089583301B
:1003200081F028F4813099F08230A9F00895873067
:10033000A9F08830C9F08430B1F4809180008F7DBD
:1003400003C0809180008F7780938000089584B5EA
:100350008F7784BD089584B58F7DFBCF8091B000E9
:100360008F778093B00008958091B0008F7DF9CF92
:100370001F93CF93DF93E5EBF0E09491E1EAF0E097
:10038000D491EDE8F0E0C491CC23B9F0182F992373
:1003900019F0892F0E948F01EC2FF0E0EE0FFF1F64
:1003A000E458FF4FA591B4918FB7F894EC911111D7
:1003B00008C0D095DE23DC938FBFDF91CF911F91D2
:1003C0000895DE2BF8CFCF93DF93282F30E0F9018B
:1003D000E255FF4F8491F901E656FF4FD491F901A0
:1003E000EA57FF4FC491CC23A1F081110E948F01E5
:1003F000EC2FF0E0EE0FFF1FEE58FF4FA591B491E8
:10040000EC91ED2381E090E009F480E0DF91CF9161
:10041000089580E090E0FACFCF93DF9390E0FC0165
:10042000E656FF4F24918A579F4FFC018491882301
:10043000D1F090E0880F991FFC01E859FF4FA5917A
:10044000B491FC01E458FF4FC591D491623071F42E
:100450009FB7F8943C91822F809583238C93E881F9
:100460002E2B28839FBFDF91CF9108958FB7F894EB
:10047000EC912E2B2C938FBFF6CF3FB7F894809141
:10048000D7019091D801A091D901B091DA0126B598
:10049000A89B05C02F3F19F00196A11DB11D3FBFBC
:1004A000BA2FA92F982F8827BC01CD01620F711D8B
:1004B000811D911D42E0660F771F881F991F4A9585
:1004C000D1F708954F925F926F927F929F92AF9271
:1004D000BF92CF92DF92EF92FF920F931F93CF9331
:1004E000DF9300D01F92CDB7DEB7D82E8091C30224
:1004F0009091C402A091C502B091C602892B8A2BAB
:100500008B2BD9F00E943D020091CF021091D002B6
:100510002091D1023091D202601B710B820B930BA0
:100520000091C3021091C4022091C5023091C6020D
:100530006017710782079307C8F20E943D0260931B
:10054000CF027093D0028093D1029093D202E091B7
:10055000CB02F091CC02309759F04091C7025091F4
:10056000C8026091C9027091CA028D2D0995D82EDA
:10057000E090CD02F090CE024D2C512C712C612CCC
:10058000E114F10409F459C0D7011C96CC901C97D2
:100590008091C1029091C2028436910510F41C969C
:1005A0001C92D701ED91FC91A280B38019821A822E
:1005B0001B82DD2079F1F701369610E000E02191F1
:1005C000222319F19280992001F130E050E040E0BF
:1005D0002F5F3F4F4F4F5F4FC301B2010E94EF0C9F
:1005E0009B01AC01892D90E0B0E0A0E0BC01CD0101
:1005F0006F5F7F4F8F4F9F4F0E94EF0CA1E0B0E0E5
:10060000AC0FBD1FA00FB11F8C930F5F1F4F0330A6
:100610001105A9F609811A812B81F70145855685B7
:1006200062817381C701F5010995D7011C96CC92AF
:100630001C971496ED90FC90A3CF8091BE029091F0
:10064000BF029C012F5F3F4F3093BF022093BE0239
:1006500049970CF44AC08FB7F8942091B6023091B4
:10066000B7024091B8025091B9028FBF8091BA028F
:100670009091BB02A091BC02B091BD02281B390B26
:100680004A0B5B0B21F421E030E040E050E0E091C8
:10069000BE02F091BF0288EE93E0E89FB001E99FAF
:1006A000700DF89F700D1124072E000C880B990B0C
:1006B0000E94BE0C3093C2022093C1021092BF026E
:1006C0001092BE022FB7F8948091B6029091B702B3
:1006D000A091B802B091B9022FBF8093BA02909353
:1006E000BB02A093BC02B093BD020F900F900F907D
:1006F000DF91CF911F910F91FF90EF90DF90CF90FE
:10070000BF90AF909F907F906F905F904F900895B3
:100710008F929F92AF92BF92CF92DF92EF92FF9211
:100720006B017C010E943D024B015C01C114D104AC
:10073000E104F104B9F00E943D02681979098A09BF
:100740009B09683E73408105910580F321E0C21A40
:10075000D108E108F10888EE880E83E0981EA11CFC
:10076000B11CE4CFFF90EF90DF90CF90BF90AF909F
:100770009F908F9008952F923F924F925F926F9229
:100780007F928F929F92AF92BF92CF92DF92EF9221
:10079000FF920F931F93CF93DF93CDB7DEB72997C7
:1007A0000FB6F894DEBF0FBECDBF898749835A8349
:1007B0006B837C830091CD021091CE02BDE78B2E1E
:1007C000912CA12CB12C0115110509F46BC0D80195
:1007D000ED91FC910084F185E02DC80109951C0183
:1007E000D8011296ED91FC91C12CD12C7601412CAF
:1007F000512C320120E030E0A901009791F0608196
:10080000260F311D411D511D6181460E511C611C79
:10081000711C6281C60ED11CE11CF11C019733963C
:10082000ECCFA0E5B0E00E94AB0C6D837E838F839C
:100830009887A7E3B0E0A30192010E94AB0C2B01C3
:100840003C01ABE4B0E0A70196010E94AB0C2D8106
:100850003E814F815885C32ED42EE52EFF2445E0DE
:10086000429D9001439D300D1124C20ED31EE11C08
:10087000F11C8C0C9D1CAE1CBF1C452C562C672CEF
:100880007724840C951CA61CB71C472F582F692F62
:100890007727840E951EA61EB71ED80114960D91BB
:1008A0001C9191CFB985CB2ED12CF12CE12CA70135
:1008B0009601C501B4010E94EF0C872E982EA92E37
:1008C000BB2429813A814B815C8182169306A40660
:1008D000B50668F0A701960169817A818B819C81B8
:1008E0000E94EF0CA50194010E94BE0C2987898506
:1008F00029960FB6F894DEBF0FBECDBFDF91CF9122
:100900001F910F91FF90EF90DF90CF90BF90AF902D
:100910009F908F907F906F905F904F903F902F901F
:100920000895FC01A281B3819C9186812681982340
:1009300081E0921380E00895FC0186810280F381BA
:10094000E02D90818095892380830895FC01968114
:100950000280F381E02D8081892B808308950F939D
:100960001F93CF93DF932091D5012F5F322F3770E4
:100970003093D50120FF2BC020E831FD2064347076
:1009800009F02062205FFC01EC01239600E011E0F9
:100990006485662329F070E0C8010E94FF0C6F5F38
:1009A0006187322F369F030E30E0311D1124311143
:1009B00010C01682662311F0615061873196EC17E2
:1009C000FD0731F7DF91CF911F910F91089520E03E
:1009D000D4CF31503683EECF4F925F926F927F9299
:1009E0008F92AF92BF92CF92DF92EF920F931F93AD
:1009F000CF93DF933C01EB010E943D02F301278579
:100A00003089621B730B6A307105B0F3F894E8818A
:100A1000F98175B1716065B16E7F65B9CA848F81E6
:100A20002C2D281B822F2F83BF844A805B801D853D
:100A30000C85DE841F5F0F5FD3949E813885A98467
:100A4000EB844181D20120E0C32F522F322F31811C
:100A5000442788943111380F08F43FEF819588942A
:100A600010FD430F4795889411FD430F47958894D7
:100A700012FD430F4795889413FD430F47958894C3
:100A800014FD430F4795889415FD430F47958894AF
:100A900016FD430F4795889417FD430F479588949B
:100AA000232F1111242F8C0D422F002C75B900C05B
:100AB00047FF65B930812227889400C000C0002C10
:100AC00065B93111390F00C0002C75B900C046FF5F
:100AD00065B908F43FEF9195889400C000C0002CE0
:100AE00065B900FD230F00C0002C75B900C045FF9B
:100AF00065B92795889401FD230F00C000C0002C24
:100B000065B92795889400C0002C75B900C044FFD2
:100B100065B902FD230F2795889400C000C0002C02
:100B200065B903FD230F00C0002C75B900C043FF59
:100B300065B92795889404FD230F00C000C0002CE0
:100B400065B92795889400C0002C75B900C042FF94
:100B500065B905FD230F2795889400C000C0002CBF
:100B600065B906FD230F00C0002C75B900C041FF18
:100B700065B92795889407FD230F00C000C0002C9D
:100B800065B92795889400C0002C75B900C040FF56
:100B900065B9432F0111422F9A0D00C000C0002CEF
:100BA00065B900C000C0002C75B900C047FF65B929
:100BB00032812227889400C000C0002C65B9311111
:100BC0003C0F00C0002C75B900C046FF65B908F4A1
:100BD0003FEFEB0DF11D00C000C0002C65B9D0FC4B
:100BE000230F00C0002C75B900C045FF65B92795DB
:100BF0008894D1FC230F00C000C0002C65B9279554
:100C0000889400C0002C75B900C044FF65B9D2FCBF
:100C1000230F2795889400C000C0002C65B9D3FC31
:100C2000230F00C0002C75B900C043FF65B927959C
:100C30008894D4FC230F00C000C0002C65B9279510
:100C4000889400C0002C75B900C042FF65B9D5FC7E
:100C5000230F2795889400C000C0002C65B9D6FCEE
:100C6000230F00C0002C75B900C041FF65B927955E
:100C70008894D7FC230F00C000C0002C65B92795CD
:100C8000889400C0002C75B900C040FF65B9432F9F
:100C9000D110422FC19500C000C0002C65B9CE0D07
:100CA00000C000C075B900C047FF65B93181222777
:100CB000889400C000C0002C65B93111380F00C005
:100CC000002C75B900C046FF65B908F43FEF819567
:100CD000889400C000C0002C65B910FD230F00C02F
:100CE000002C75B900C045FF65B92795889411FDA2
:100CF000230F00C000C0002C65B92795889400C060
:100D0000002C75B900C044FF65B912FD230F27956B
:100D1000889400C000C0002C65B913FD230F00C0EB
:100D2000002C75B900C043FF65B92795889414FD60
:100D3000230F00C000C0002C65B92795889400C01F
:100D4000002C75B900C042FF65B915FD230F27952A
:100D5000889400C000C0002C65B916FD230F00C0A8
:100D6000002C75B900C041FF65B92795889417FD1F
:100D7000230F00C000C0002C65B92795889400C0DF
:100D8000002C75B900C040FF65B9432F1111422FE7
:100D90008C0D00C000C0002C65B9119709F086CEFB
:100DA00020EE31E0D2010E94130DDC01CB01F4E012
:100DB000B695A79597958795FA95D1F730E020E0FD
:100DC000B901EAE94E9E040C611D5E9E600D711D25
:100DD0001124650D711D860F971FA11DB11D893E40
:100DE00043E09407A105B10508F434C0885E934040
:100DF000A109B10942E0B695A795979587954A95BF
:100E0000D1F747E0849F080E211D949F200D311DCE
:100E10001124290F311D6091D40170E0860F971FB6
:100E2000820F931F4091B6025091B7026091B802B1
:100E30007091B902292F3327420F531F611D711D75
:100E40004093B6025093B7026093B8027093B90210
:100E50008093D40178940E943D02F301708B6787E0
:100E6000DF91CF911F910F91EF90DF90CF90BF90C6
:100E7000AF908F907F906F905F904F900895209AE1
:100E80000895EF92FF920F931F93CF93DF93CDB707
:100E9000DEB762970FB6F894DEBF0FBECDBF7C0100
:100EA000DC011C968C917A8369835C834B835E831F
:100EB0004D830D871E872F87813001F5CE01019666
:100EC0000E94AF0483E0888B1A8A198AD701ED91BA
:100ED000FC910484F585E02DBE016F5F7F4FC70153
:100EE000099562960FB6F894DEBF0FBECDBFDF91B5
:100EF000CF911F910F91FF90EF9008951C861B8654
:100F00001A86198618861F82DDCFEF92FF920F9303
:100F10001F93CF93DF93CDB7DEB762970FB6F894E8
:100F2000DEBF0FBECDBF7C01DC011C968C917A83A5
:100F300069835C834B835E834D830D871E872F8778
:100F40008130F9F4CE0101960E94AF04188A1A8A02
:100F5000198AD701ED91FC910484F585E02DBE013D
:100F60006F5F7F4FC701099562960FB6F894DEBF99
:100F70000FBECDBFDF91CF911F910F91FF90EF90EA
:100F800008951C861B861A86198618861F82DECF56
:100F900090E080E00895FC018585968508950F9383
:100FA0001F93CF93DF9300D01F92CDB7DEB7AB0175
:100FB00019821A821B82DC01ED91FC910190F08173
:100FC000E02D00E010E020E0BE016F5F7F4F09954B
:100FD0000F900F900F90DF91CF911F910F91089577
:100FE000CF92DF92EF92FF92CF93DF93EC010E94BA
:100FF000340C28E0C22ED12CE12CF12CA701960153
:101000000E948C0C798368830E94340CA70196019E
:101010000E948C0C7B836A83DF91CF91FF90EF90CD
:10102000DF90CF9008955F926F927F928F929F9200
:10103000AF92BF92CF92DF92EF92FF920F931F93E6
:10104000CF93DF93CDB7DEB7C054D1090FB6F89474
:10105000DEBF0FBECDBF8C017A016B01CE010196C0
:101060005C0180E4D5011D928A95E9F7D80121E061
:101070001097B1F0ED91FC91119733E0EE0FFF1F47
:101080003A95E1F7EA0DFB1D12968D919C9113970D
:10109000E80FF91F208316960D90BC91A02DE8CF84
:1010A000FA01A3E0EE0FFF1FAA95E1F7EA0DFB1D81
:1010B000E60FF71F81E080830E949800C50147E09A
:1010C00070E060E0B7E08B2E2AE5922E55245A940A
:1010D00030E020E0642E712CFC01E20FF31FE08170
:1010E000EE23C1F0E82DE21BB8E0EB9FF0011124E4
:1010F000E60DF71D5F01AA0CBB1CEA0DFB1DEA50B3
:10110000FE4FE616F70651F5C216D30639F55082A2
:10111000118212822F5F3F4F28303105E9F66F5F51
:101120007F4F08964150A0F68091C002C05CDF4F0F
:101130000FB6F894DEBF0FBECDBFDF91CF911F91E8
:101140000F91FF90EF90DF90CF90BF90AF909F9066
:101150008F907F906F905F900C946202D801AD9059
:10116000BC901197A616B70649F41296AD90BC90A4
:10117000A216B30619F410825182CBCF108291824D
:10118000C8CF0E94590E1F920F920FB60F921124D2
:101190002F933F938F939F93AF93BF938091B6020A
:1011A0009091B702A091B802B091B9023091D601E6
:1011B00023E0230F2D3758F50196A11DB11D209373
:1011C000D6018093B6029093B702A093B802B09371
:1011D000B9028091D7019091D801A091D901B09125
:1011E000DA010196A11DB11D8093D7019093D8011A
:1011F000A093D901B093DA01BF91AF919F918F91E4
:101200003F912F910F900FBE0F901F90189526E8D9
:10121000230F0296A11DB11DD2CFCF93DF93CDB77F
:10122000DEB769970FB6F894DEBF0FBECDBF7894D6
:1012300084B5826084BD84B5816084BD85B58260DB
:1012400085BD85B5816085BD80916E00816080938C
:101250006E001092810080918100826080938100F5
:101260008091810081608093810080918000816005
:10127000809380008091B10084608093B100809160
:10128000B00081608093B00080917A008460809388
:101290007A0080917A00826080937A0080917A004F
:1012A000816080937A0080917A00806880937A00D0
:1012B0001092C1008091EE01811145C01092E001B1
:1012C0001092DF018FEF8093E3018093E40180931C
:1012D000E5018093E6018093E7018093E80181E0D6
:1012E0008093E9011092EB011092EA011092E20161
:1012F0001092E1018091CD029091CE02892B31F4C0
:101300008DED91E09093CE028093CD02E091DB01D0
:10131000F091DC01309721F08DED91E0958384838D
:101320008DED91E09093DC018093DB011092ED0153
:101330001092EC018EE191E09093DE018093DD014B
:1013400081E08093EE01209A86EF91E09093E00196
:101350008093DF0180E490E09093EB018093EA01B9
:101360008091C3029091C402A091C502B091C602BF
:10137000843C29E09207A105B10520F484EC99E0B2
:10138000A0E0B0E08093C3029093C402A093C50292
:10139000B093C6028FEF8093E30180EB8093E4016A
:1013A00080EF8093E50184E08093C0028BEB93E0B3
:1013B0009093CC028093CB0286E990E0A0E0B0E06D
:1013C0008093C7029093C802A093C902B093CA0247
:1013D00061E087E00E940C0262E083E00E940C0260
:1013E00062E086E00E940C0262E085E00E940C024E
:1013F00062E084E00E940C0262E082E00E940C0243
:1014000081E08F8B8E8B1D8A8FEA90E09C8B8B8B7B
:101410008F89882309F4C4C181E08E8B81E090E03C
:10142000988B8F8782E090E09E878D8788E090E0A0
:101430000E94340D4C0184E090E0D40111969C93FD
:101440008E9313969C938E93129715961C921E92D0
:10145000149717961C921E9216979A8A898ACE0123
:1014600009960E94F00749855A856B857C85898994
:101470009A890E94130866246394712C8E898823AC
:1014800009F4FCC05F84488882E00E94E3015C01AB
:1014900083E00E94E3018C0186E00E94E3017C016D
:1014A00085E00E94E3016C0184E00E94E301AB2827
:1014B00051F597E0012B21F095E0EF2809F498E031
:1014C00080E09F87888BF401208031808281938126
:1014D000998F888F0480F581E02DD401309721F118
:1014E0008081918111969C938E9382819381139632
:1014F0009C938E93129714960D90BC91A02D04800E
:10150000F581E02DEBCF892B49F0CD2849F0EF286C
:1015100049F0C201012BA9F691E0D2CF94E0D0CFDF
:1015200093E0CECF92E0CCCFDE0153965D01FE0179
:1015300075966F01CE0147967C018E010A5E1F4FA2
:101540009E012F5E3F4F452D542DBE01635F7F4F9F
:1015500008970E94B4008D89882369F01D8AC7010D
:101560009E012F5E3F4F452D542DBE01635F7F4F7F
:1015700008970E94B400E989FA89808191812985C0
:101580003A852817390749F44B855C8522813381D8
:1015900002E010E042175307D9F0A681B7811097F7
:1015A000A9F02D913C9111978217930751F4428134
:1015B000538112962D913C9113974217530709F4CA
:1015C0004AC016960D90BC91A02DE9CF10E000E026
:1015D00049855A856B857C85CF010E9413080230AE
:1015E0001105E1F5CE0109960E94F00788E090E030
:1015F0000E94340D8C01DC0117961C921E921697E6
:1016000015969C928E92149711963C922E92E88D8C
:10161000F98D1396FC93EE931297D40117969C9331
:101620008E931697BFEF6B1A7B0A81E00E94B80178
:1016300062E370E080E090E00E94880380E00E9416
:10164000B80148016B897C89072E000C880B990B27
:101650000E94880313CF03E010E0BACF03301105D6
:1016600089F71E8A89899A89009761F3FC010681AE
:1016700017810E94D00D1A8B098BF4CF8F89882394
:1016800009F47BC081E00E94B80164EF71E080E062
:1016900090E00E94880380E00E94B80110E000E022
:1016A000FAE06F1671047CF0EAE0F0E0C301BF01DC
:1016B0000E94FF0C9C01C301821B930BBF010E947F
:1016C000FF0C8B0139010E949800DE01119688E021
:1016D000FD0111928A95E9F7B80183E0660F771F43
:1016E0008A95E1F793E0660C771C9A95E1F78D01F6
:1016F00030E020E0AB01420F531F4C575E4FF30127
:10170000E20FF31FCF018C5C9E4F7C01FA019081A8
:10171000F7018081982BF80191938F012F5F3F4F44
:101720002830310539F787E01FEF0D91F8E08F9FE2
:10173000B00111244CE251E097E0FA012191AF0190
:10174000202369F09B01290F311DF901EE0FFF1FC6
:10175000E20FF31FEA50FE4F108211821283915064
:1017600060F7815010F78091C0020E94620268EB1E
:101770007BE080E090E00E94880389899A89892B28
:1017800009F446CE89899A89009709F441CEDC0193
:1017900016960D911C910E94D00D1A8B098BF2CFD9
:1017A00080E090E0892B09F42BCE0E94000028CE27
:1017B000E0ECF2E08FEF80831282118214861386B0
:1017C0008FEF9FEFDC0187839087A187B287089511
:1017D0008F929F92AF92BF92CF92DF92EF92FF9241
:1017E000CF93DF93EC01688179818A819B816115B8
:1017F00071058105910521F464E279ED8BE597E0AF
:101800002DE133EF41E050E00E948C0C49015A0178
:101810009B01AC01A7EAB1E40E94AB0C6B017C0117
:10182000ACEEB4EFA50194010E94B90CC60ED71E10
:10183000E81EF91EF7FE06C081E0C81AD108E108CB
:1018400080E8F80AC882D982EA82FB82C701B60121
:101850009F77DF91CF91FF90EF90DF90CF90BF9077
:10186000AF909F908F9008958F929F92AF92BF926A
:10187000CF92DF92EF92FF9260910001709101018F
:101880008091020190910301611571058105910517
:1018900021F464E279ED8BE597E02DE133EF41E04F
:1018A00050E00E948C0C49015A019B01AC01A7EA4F
:1018B000B1E40E94AB0C6B017C01ACEEB4EFA5016E
:1018C00094010E94B90CC60ED71EE81EF91EF7FE41
:1018D00006C081E0C81AD108E10880E8F80AC09281
:1018E0000001D0920101E0920201F0920301C701D0
:1018F000B6019F77FF90EF90DF90CF90BF90AF90B1
:101900009F908F90089560930001709301018093E0
:101910000201909303010895052E97FB1EF4009495
:101920000E94A30C57FD07D00E94BE0C07FC03D0F9
:101930004EF40C94A30C50954095309521953F4F53
:101940004F4F5F4F089590958095709561957F4FAB
:101950008F4F9F4F08950E94E00CA59F900DB49F5C
:10196000900DA49F800D911D11240895B7FF0C9434
:10197000AB0C0E94AB0C821B930B0895A1E21A2EB4
:10198000AA1BBB1BFD010DC0AA1FBB1FEE1FFF1F23
:10199000A217B307E407F50720F0A21BB30BE40B73
:1019A000F50B661F771F881F991F1A9469F76095BA
:1019B0007095809590959B01AC01BD01CF01089574
:1019C000A29FB001B39FC001A39F700D811D112480
:1019D000911DB29F700D811D1124911D0895DB0191
:1019E0008F939F930E94AB0CBF91AF91A29F800DEC
:1019F000911DA39F900DB29F900D1124089597FB08
:101A0000072E16F4009407D077FD09D00E941A0D16
:101A100007FC05D03EF4909581959F4F08957095F1
:101A200061957F4F08950E94E00CB7FF0895821BD7
:101A3000930B0895AA1BBB1B51E107C0AA1FBB1F34
:101A4000A617B70710F0A61BB70B881F991F5A954A
:101A5000A9F780959095BC01CD010895EE0FFF1F69
:101A60000590F491E02D09940F931F93CF93DF938A
:101A70008230910510F482E090E0E091D502F0917F
:101A8000D60230E020E0B0E0A0E0309799F42115D4
:101A9000310509F44AC0281B390B24303105D8F52B
:101AA0008A819B816115710589F1FB019383828392
:101AB000FE0111C0408151810281138148175907ED
:101AC000E0F04817590799F4109761F012960C93BB
:101AD000129713961C933296CF01DF91CF911F91ED
:101AE0000F9108950093D5021093D602F4CF2115DB
:101AF000310551F04217530738F0A901DB019A0173
:101B0000BD01DF01F801C1CFEF01F9CF9093D602FB
:101B10008093D502CDCFFE01E20FF31F8193919305
:101B20002250310939832883D7CF2091D3023091B5
:101B3000D402232B41F42091060130910701309308
:101B4000D4022093D3022091040130910501211584
:101B5000310541F42DB73EB740910801509109017C
:101B6000241B350BE091D302F091D402E217F30766
:101B7000A0F42E1B3F0B2817390778F0AC014E5FFD
:101B80005F4F2417350748F04E0F5F1F5093D40264
:101B90004093D302819391939FCFF0E0E0E09CCFFC
:101BA000CF93DF930097E9F0FC0132971382128202
:101BB000A091D502B091D602ED0130E020E010975F
:101BC000A1F420813181820F931F2091D3023091A3
:101BD000D4022817390709F061C0F093D402E093CA
:101BE000D302DF91CF910895EA01CE17DF07E8F520
:101BF0004A815B819E0141155105B1F7E901FB83E3
:101C0000EA8349915991C40FD51FEC17FD0761F480
:101C1000808191810296840F951FE90199838883C1
:101C2000828193819B838A83F0E0E0E012968D911C
:101C30009C9113970097B9F52D913C911197CD0187
:101C40000296820F931F2091D3023091D40228175D
:101C5000390739F6309751F51092D6021092D50215
:101C6000B093D402A093D302BCCFD383C28340816C
:101C70005181840F951FC817D90761F44E5F5F4FDC
:101C800088819981480F591F518340838A819B81A4
:101C9000938382832115310509F0B0CFF093D602EA
:101CA000E093D5029ECFFD01DC01C0CF13821282EA
:101CB000D7CF81E090E0F8940C945E0EF894FFCFBB
:101CC000010000000000D702800000000000C108F1
:101CD000C108C108CF07CB07C8070000000085076F
:101CE00041073F07CF07CB078C01EC048040201051
:101CF00008040201070505050505050701010101A5
:101D0000010101010701010306040407070101079E
:101D10000701010705050507010101010704040684
:101D20000301010707040406050505070701010172
:101D3000010101010705050507050507070505055B
:101D400007010101E0A0A0A0A0A0A0E02020202089
:101D500020202020E0202060C08080E0E02020E0E3
:101D6000E02020E0A0A0A0E020202020E08080C093
:101D7000602020E0E08080C0A0A0A0E0E020202043
:101D800020202020E0A0A0A0E0A0A0E0E0A0A0A053
:041D9000E02020200F
:00000001FF
